:020000040800F2
:10000000188900202D0300086DA700087D750008E1
:1000100069A700087F18000831E700080000000009
:100020000000000000000000000000006D02000859
:100030008522000800000000C902000845B300083E
:100040004703000847030008470300084703000868
:1000500047030008470300088722000847030008F9
:1000600047030008912200089B220008470300086C
:10007000111F000847030008470300084703000852
:100080004703000847030008470300084703000828
:10009000851800084703000847030008A522000848
:1000A0004703000847030008470300084703000808
:1000B00047030008470300084703000847030008F8
:1000C00047030008470300084703000847030008E8
:1000D00047030008470300084703000871BC0008F5
:1000E00047030008470300084703000847030008C8
:1000F00047030008470300084703000847030008B8
:1001000047030008470300084703000847030008A7
:1001100047030008470300084703000845B40008E8
:1001200047030008211F000847030008311F00088B
:100130004703000847030008470300084703000877
:1001400095180008470300084703000815AA00088F
:10015000411F000847030008511F0008A1BD000807
:100160004703000847030008470300084703000847
:100170004703000847030008470300080000000089
:10018000470300084703000800F002F800F05EF89B
:100190000AA090E8000C82448344AAF10107DA45E2
:1001A00001D100F053F8AFF2090EBAE80F0013F0D6
:1001B000010F18BFFB1A43F00103184780540100D8
:1001C000A05401000A444FF0000C10F8013B13F05A
:1001D000070408BF10F8014B1D1108BF10F8015BA0
:1001E000641E05D010F8016B641E01F8016BF9D193
:1001F00013F0080F1EBF10F8014BAD1C0C1B09D1EA
:100200006D1E58BF01F801CBFAD505E014F8016B5B
:1002100001F8016B6D1EF9D59142D6D370470000ED
:100220000023002400250026103A28BF78C1FBD8FF
:10023000520728BF30C148BF0B6070471FB514F08C
:10024000ADFA00F0DBFE1FBD10B510BD00F014FFCD
:100250001146FFF7F3FF12F01FF900F032FF03B46D
:10026000FFF7F2FF03BC00F097FF00002C4B19686A
:100270000868B0E8F04F80F30988BFF36F8F4FF044
:10028000000080F3118870470000000008480068F3
:10029000006880F308884FF0000080F3148862B68D
:1002A00061B6BFF34F8FBFF36F8F00DF00BF00BF9A
:1002B00008ED00E0DFF80C00016841F47001016016
:1002C000704700BF88ED00E0EFF30980BFF36F8F48
:1002D000134B1A681EF0100F08BF20ED108A20E99A
:1002E000F04F106009B44FF0500080F31188BFF355
:1002F0004F8FBFF36F8F12F0ADFF4FF0000080F310
:10030000118809BC19680868B0E8F04F1EF0100F9A
:1003100008BFB0EC108A80F30988BFF36F8F704775
:100320008C000020EFF305807047000009488047EB
:1003300009480047FEE7FEE7FEE7FEE7FEE7FEE7C7
:10034000FEE7FEE7FEE7FEE704480549054A064BDF
:100350007047000031B400088901000818830020AC
:100360001889002018850020188500209FED1A1A92
:10037000F5EE000A40EE010ABDEEE00AF5EEC00A15
:1003800010EE100AF1EE10FA38BF401E00EE100A0F
:100390001349F7EE001AB8EEC00A30EEC00ADFEDDE
:1003A0000F0A20EE200AFCEEC00A10EE900AC0F3FD
:1003B000080000EE900A01EB8000F8EE600A90ED74
:1003C000011A70EE600A90ED000A71EEE01A21EE5B
:1003D000800A00EE810A704783F9223E0000004443
:1003E000004E0108B5EEC00AF1EE10FA07D2DFEDBB
:1003F0001E0AB4EEE00AF1EE10FAA8BF7047DFED76
:100400001B0AB5EEC00A60EE200ABDEEE01A11EE3E
:10041000100AF1EE10FA38BF401E00EE100A15491E
:10042000F7EE001AB8EEC00A30EEC00ADFED100A8F
:1004300060EE200ABCEEE00A10EE100AC0F30800DD
:1004400000EE100A01EB8000B8EE400A90ED011AB0
:1004500070EEC00A90ED000A71EEE01A21EE800AFB
:1004600000EE810A70470000CD024CB483F9223EB1
:1004700000000044004E010870B405880E884468EE
:10048000D1F804C05368B54208D1408849888842F1
:1004900001BF11888D425188884203D070BC6FF033
:1004A0000200704705FB00F1880827D094ED001A80
:1004B000DCED000A94ED010ADCED011A31EE201AA0
:1004C000D4ED020A70EE211A9CED020A83ED001AA7
:1004D000C3ED011A94ED031ADCED031A30EE800A25
:1004E000401E71EE210A83ED020A04F11004C3EDEF
:1004F000030A03F110030CF1100CD7D111F0030023
:1005000030D0B0F1004F30D200282BDD211F1B1F4F
:10051000ACF1040210F0010F0AD091ED010AD2ED06
:10052000010A091D121D30EE200A83ED010A1B1D70
:10053000400817D091ED010AD2ED010A401E30EEBD
:10054000200A83ED010A91ED020AD2ED020A01F1BF
:10055000080102F1080230EE200A83ED020A03F1DD
:100560000803E7D170BC00207047B4EC010A401EBC
:10057000FCEC010A30EE200AA3EC010AF5D1F1E708
:1005800001804280436070472DE9F34F84B00498A6
:1005900040680090486801900498B0F800E04588F1
:1005A000DFEDFE0A00200290B0EE600AAE4506D1F3
:1005B00008884988884204BF7146864504D06FF098
:1005C000020006B0BDE8F08F01985FEA010C18BF89
:1005D000B7EE001A3DD000BFBEEB0C0117D0B1F151
:1005E000004F80F01F82002911DD021F11F0010F62
:1005F0001CBFC2ED010A121D4B1006D0C2ED010A4C
:10060000C2ED020A08325B1EF8D100EB8100BCF19A
:100610000102A0EC011A19D0B2F1004F80F008825B
:10062000002A13DD031F12F0010F1CBFC3ED010AE6
:100630001B1D511008D000BFC3ED010AC3ED020A13
:10064000491E03F10803F7D100EB8200BCF1010C55
:10065000C2D14FF000080395002D14BFB0EE602A00
:10066000002000F0BF8100BF009908FB05F001EBFE
:10067000800B0199DBED002A01EB80000346F0EED0
:10068000421AC64552D9AEEB0802ABEB850112F017
:10069000010F17D001EB850191ED000AB5EEC00AFC
:1006A000F1EE10FA07DDB4EEE10AF1EE10FA09DD21
:1006B000F0EE401A06E0B1EE400AF4EEC01AF1EE98
:1006C00010FAF5D3521031D001EB850C9CED000AE5
:1006D000B5EEC00AF1EE10FA05DDB4EEE10AF1EE76
:1006E00010FA09DD06E0B1EE400AF4EEC01AF1EEB0
:1006F00010FA01D2F0EE401A01EBC50191ED000AAB
:10070000B5EEC00AF1EE10FA05DDB4EEE10AF1EE45
:1007100010FA09DD06E0B1EE400AF4EEC01AF1EE7F
:1007200010FA01D2F0EE401A521ECDD1F5EEC01AE9
:10073000F1EE10FA00F07381F5EEC02A0126F1EE19
:1007400010FA0099D4BFB1EE620AB0EE620AB4EEBC
:10075000610AF1EE10FA1CBFAEEB0802B2F1010C17
:1007600047D005FB08F201EB820292ED001A00BFB0
:10077000B0EE410A05FB06F4B5EEC00A00EB8404B6
:10078000F1EE10FACCBFF0EE400AF1EE400AF4EEC2
:10079000610AF1EE10FA28D1B5EB080C11D0BCF1CA
:1007A000004F7DD2BCF1000F0BDD00BF92ED000ABF
:1007B000D1ED000ABCF1010CE2EC010AA1EC010A46
:1007C000F4D129000ED0B1F1004F6AD2002909DD21
:1007D00094ED000AD0ED000A491EE4EC010AA0ECF9
:1007E000010AF5D1012002900BE0761CBCF1010C4E
:1007F000BED10298012804D0F5EEC02AF1EE10FA1D
:100800007ED09BED000AB5EB08009A465946064695
:1008100022D0B0F1004F74D200281DDD091F10F066
:10082000010F06D0F0EE400A80EEA01A81ED011A09
:10083000091D401010D000BFD1ED010A401E80EE0E
:10084000801A81ED011A91ED021AC1EE000AC1ED84
:10085000020A01F10801EFD1280026D0B0F1004FC3
:100860007ED2002821DDAAF1040110F0010F06D08C
:10087000D1ED010A80EE801A81ED011A091D4010A8
:1008800013D000BFD1ED010A401E80EE801A81ED29
:10089000011AD1ED020A80EE801A81ED021A01E000
:1008A000CBE0D6E001F10801ECD1DDE900124FF018
:1008B00000095FEA0E0773D0C14504BF01EB860152
:1008C00002EB850274D091ED000ADC465046331EDF
:1008D00035D01C46B6F1004F7ED2002C2FDD0B1F09
:1008E000ABF1040C16F0010F0FD0F0EE400ADCED76
:1008F000011AB0EE601A00EEE11A83ED011A01E070
:100900008DE0B1E01B1D0CF1040C741015D000BF7C
:10091000D3ED010A9CED011A40EE410AC3ED010A34
:10092000D3ED020A9CED021A0CF1080C40EE410ACC
:10093000C3ED020A0833641EEAD101EB86012B00E5
:1009400036D0B3F1004F72D2002B31DDA2F1040C8E
:10095000AAF1040013F0010F0CD0DCED010A00E055
:100960008BE090ED011A001D40EE410ACCED010A2A
:100970000CF1040C5C1019D0DCED010A90ED011AA9
:1009800040EE410ACCED010ADCED020A90ED021ABC
:10099000083040EE410ACCED020A03E000000000FE
:1009A0000DE005E0641E0CF1080CE5D102EB8302BA
:1009B00001EB88017F1E09F101097FF47DAF0098EA
:1009C00008F10108001D00900398401E03907FF479
:1009D0004BAE0299012900E058E004BF06B0BDE823
:1009E000F08F00BFB5EEC00AF1EE10FA7FF4E9AD6A
:1009F00004990EFB05F3002B4A684FF000010BD958
:100A000002EB810C9CED000AB5EEC00AF1EE10FA83
:100A100002D1491C8B42F3D88B427FF4D2AD6FF0E8
:100A20000400CEE5E0EC010A491EFBD1EFE538E019
:100A3000E0EC010A521EFBD108E692ED000AD1ED6E
:100A4000000ABCF1010CE2EC010AA1EC010AF4D1AC
:100A5000B7E694ED000AD0ED000A491EE4EC010A65
:100A6000A0EC010AF5D1BDE6D1ED000A401E80EEF2
:100A7000801AA1EC011AF7D1EEE6D3ED000A401E70
:100A800080EE801AA3EC011AF7D10EE7BCEC011A34
:100A9000D1ED000A5B1E40EE410AE1EC010AF5D1FE
:100AA0004DE7B0EC011AD2ED000A5B1E40EE410AA0
:100AB000E2EC010AF5D17BE72DE9F04F82B0466800
:100AC00053680193058847884B8800200090088868
:100AD000874201BFB2F800C06545528893421EBFED
:100AE0006FF0020002B0BDE8F08F9FED412A4FEA9F
:100AF000970EC7F3400B00BFDDE9000202EB800A4E
:100B00004A6898464FF00009B0EE420AB4465FEAE0
:100B10000E0025D092ED001ADCED001A02EB8302E4
:100B2000DCED010A01EE810A92ED001A02EB83026C
:100B3000401ED2ED001A02EB830200EE810A9CED0A
:100B4000021ADCED030A00040CF1100C000C01EE9B
:100B5000210A92ED001A02EB830200EE810AD9D13C
:100B600017F0030026D0ACF10404A2EB830210F0CE
:100B7000010F08D002EB8302D4ED010A92ED001AB6
:100B8000241D00EE810A5FEA0B0013D002EB830CF8
:100B9000D4ED010A9CED001A02EBC302401E00EEE8
:100BA000810AD4ED020A92ED001A04F1080400EE65
:100BB000810AEBD109F10100AAEC010A1FFA80F9C0
:100BC000486800EB8902A8F101001FFA80F8B8F12B
:100BD000000F99D1009806EB8706184480B2009068
:100BE000681E05042D0C87D102B00020BDE8F08FEF
:100BF0000000000070B405880E884468D1F804C075
:100C00005368B54208D140884988884201BF11889D
:100C10008D425188884203D070BC6FF0020070474B
:100C200005FB00F1880827D094ED001ADCED000ADE
:100C300094ED010ADCED011A31EE601AD4ED020ADE
:100C400070EE611A9CED020A83ED001AC3ED011AE1
:100C500094ED031ADCED031A30EEC00A401E71EE6B
:100C6000610A83ED020A04F11004C3ED030A03F1E3
:100C700010030CF1100CD7D111F0030030D0B0F1FB
:100C8000004F30D200282BDD211F1B1FACF10402C6
:100C900010F0010F0AD091ED010AD2ED010A091DF1
:100CA000121D30EE600A83ED010A1B1D400817D0AB
:100CB00091ED010AD2ED010A401E30EE600A83ED8B
:100CC000010A91ED020AD2ED020A01F1080102F1D6
:100CD000080230EE600A83ED020A03F10803E7D14F
:100CE00070BC00207047B4EC010A401EFCEC010A05
:100CF00030EE600AA3EC010AF5D1F1E72DE9F04FDF
:100D000002884768B0F802804888D1F8049082B021
:100D10004FF0000A1646824207BF098888456FF0E7
:100D2000020002B018BFBDE8F08F4FEA980B02EB4B
:100D300042000190C8F34000CDF8000009EB8A01A1
:100D4000BBF1000F33D0019801EB820C01EB800462
:100D50003B46E64601EBC2054FEA0B0093ED000A65
:100D6000401E81ED000A93ED010A01EB02118CEDAA
:100D7000000A93ED020A0CEB021C85ED000A93EDCC
:100D8000030A05EB021584ED000A04EB021403F1DB
:100D90001003E3D10EEB820000EB820000EB820136
:100DA000ABF10100504307EB0B1701EB001118F0FA
:100DB000030C21D03B1FA1EB82011CF0010F06D0D8
:100DC00093ED010A01EB82011B1D81ED000A0098E1
:100DD00080B100BF93ED010A01EB820401EBC20177
:100DE00084ED000A93ED020A401E81ED000A03F132
:100DF0000803EFD107EB8C070AF101001FFA80FA14
:100E0000701E0604360C99D102B00020BDE8F08FA8
:100E100053EA020C00F069802DE9F04B4FF0000618
:100E2000002B1FBFB3FA83F503FA05F424FA05F685
:100E30005E4012BF1643B2FA82F502FA05F4C5F11C
:100E400020051EBF22FA05FC44EA0C04203556EAB0
:100E5000044C4FEA144418BF641C4FF000084FF0D4
:100E60000009904271EB030C39D3002919BFB1FA84
:100E700081F701FA07F6B0FA80F700FA07F6C7F132
:100E800020071EBF20FA07FC46EA0C062037B6FBF7
:100E9000F4FCA7EB0507103F07F01F0BCBF1200672
:100EA0000CFA0BFB2CFA06F644BFB3460026202FA3
:100EB000A4BF5E464FF0000B5BEA060C08BF4FF084
:100EC000010B19EB0B09ABFB027C48EB0608C01BBE
:100ED00006FB02CC0BFB03CC71EB0C01C1E70B460C
:100EE000024641464846BDE8F08B13B54FF000007E
:100EF0004FF00001AFF30080BDE81C40704710B513
:100F0000203AC0F00B80B1E81850203AA0E8185001
:100F1000B1E81850A0E81850BFF4F5AF5FEA027CC2
:100F200024BFB1E81850A0E8185044BF18C918C031
:100F3000BDE810405FEA827C24BF51F8043B40F8D2
:100F4000043B08BF7047D20728BF31F8023B48BFB7
:100F500011F8012B28BF20F8023B48BF00F8012BF5
:100F600070474FF000020429C0F0128010F0030C0B
:100F700000F01B80CCF1040CBCF1020F18BF00F88C
:100F8000012BA8BF20F8022BA1EB0C0100F00DB83B
:100F90005FEAC17C24BF00F8012B00F8012B48BF99
:100FA00000F8012B70474FF0000200B5134694463D
:100FB0009646203922BFA0E80C50A0E80C50B1F1B1
:100FC0002001BFF4F7AF090728BFA0E80C5048BFC5
:100FD0000CC05DF804EB890028BF40F8042B08BF63
:100FE000704748BF20F8022B11F0804F18BF00F85F
:100FF000012B7047704770477047000070B5064C72
:101000007C44064D7D4403E0206820448047241D35
:10101000AC42F9D170BD00005846010058460100AD
:1010200010B500F009F8006810BD10B5044600F0D6
:1010300003F8046010BD000000487047B88200202B
:101040001FB584B000200A9C06AB04AA02A9009434
:10105000AFF3008018B1DDE9020108B010BD03480C
:10106000204000F037F800200146F6E70000207C21
:1010700000487047B88200207546FFF7F9FFAE467A
:1010800005006946534620F00700854618B020B594
:10109000FFF75AF9BDE820404FF000064FF0000777
:1010A0004FF000084FF0000B21F00701AC46ACE810
:1010B000C009ACE8C009ACE8C009ACE8C0098D467D
:1010C000704710B50446AFF300802046BDE81040DD
:1010D000FFF7C5B810B500F009F8BDE81040AFF350
:1010E0000080002801D000F057B8704710B50228E2
:1010F00003D0410103D50DA112E0002010BD010174
:1011000001D50FA10CE0C10001D511A108E08100BB
:1011100001D512A104E0400001D513A100E0002197
:1011200015A000F040F8012010BD0000496E766166
:101130006C6964204F7065726174696F6E000000A5
:10114000446976696465204279205A65726F0000AF
:101150004F766572666C6F7700000000556E6465AF
:1011600072666C6F77000000496E65786163742069
:10117000526573756C7400005349474650453A20D8
:1011800041726974686D6574696320657863657020
:1011900074696F6E3A20000001491820ABBEFEE76B
:1011A00026000200704770B505460C460A2000E094
:1011B0006D1C00F011F835B128780028F8D102E054
:1011C000641C00F009F814B120780028F8D1BDE8BB
:1011D00070400A20AFF3008008B569468DF8000022
:1011E0000320ABBE08BD000055494A6822F44032D6
:1011F0004A604A6843681A434A600268526822F4A7
:10120000807203685A6002685368026943EA0222E6
:1012100003685A600268526822F0407203685A609C
:101220000268526883681A4303685A6002689268C9
:1012300022F4006203689A6002689268C3681A43E5
:1012400003689A603F4B826A9A4218D0026892689B
:1012500022F0706203689A6002689268836A1A4397
:1012600003689A600268926822F0405203689A60AC
:1012700002689268C36A1A4303689A600BE00268C6
:10128000926822F0706203689A600268926822F0A5
:10129000405203689A600268926822F00202036872
:1012A0009A6002689368027E43EA420203689A6089
:1012B0002022125CA2B10268526842F40062036804
:1012C0005A600268526822F4604203685A600268F9
:1012D0005368426A521E43EA423203685A6005E08C
:1012E0000268526822F4006203685A600268D26A97
:1012F00022F470020368DA620268D36A828B521E9B
:1013000043EA02520368DA620268926822F40072C9
:1013100003689A600268936890F8302043EA42229A
:1013200003689A600268926822F4806203689A6097
:1013300002689368426943EA822203689A607047B0
:10134000002301400100000F10B5012210210248C6
:1013500002F06CFE10BD00000000024010B500223B
:101360001021024802F062FE10BD000000000240A1
:1013700010B501221146024802F058FE10BD0000CF
:101380000004024010B500220121024802F04EFE86
:1013900010BD00000004024010B50446FFF7DEFF58
:1013A000922000F0A3F906229549122000F07EF960
:1013B000FFF7CAFF92484078000200B290490978CE
:1013C0000843904908800846B0F9000000EE100A72
:1013D000B8EEC00A8C48D0ED000A20EE200AD4ED09
:1013E000080A20EE200A84ED000A8548C078000231
:1013F00000B2834989780843824908800846B0F9D9
:10140000000000EE100AB8EEC00A7F48D0ED000AD6
:1014100020EE200AD4ED080A20EE200A84ED010A0D
:1014200077484079000200B2754909790843754947
:1014300008800846B0F9000000EE100AB8EEC00AB5
:101440007148D0ED000A20EE200AD4ED080A20EE03
:10145000200A84ED020AFFF795FF08226849002060
:1014600000F024F9FFF784FF654800780F284FD17A
:1014700066480078F0B36248C078000200B2604964
:10148000897808435F49088094ED090A0846B0F955
:10149000000000EE900AF8EEE00A5D4890ED001AB8
:1014A00010EE810A84ED030A55484079000200B22B
:1014B0005349097908435349088094ED0A0A0846BC
:1014C000B0F9000000EE900AF8EEE00A504890ED06
:1014D000001A10EE810A84ED040A4948C07900021E
:1014E00000B24749897908434649088094ED0B0AC0
:1014F000084600E00DE0B0F9000000EE900AF8EEBA
:10150000E00A434890ED001A10EE810A84ED050AC6
:1015100044E03B48C078000200B23949897808436A
:10152000384908800846B0F9000000EE100AB8EE0D
:10153000C00A3748D0ED000A20EE200A84ED030AE5
:101540002F484079000200B22D49097908432D49FE
:1015500008800846B0F9000000EE100AB8EEC00A94
:101560002B48D0ED000A20EE200A84ED040A24481E
:10157000C079000200B222498979084321490880D4
:101580000846B0F9000000EE100AB8EEC00A204884
:10159000D0ED000A20EE200A84ED050AFFF7DEFEFA
:1015A000A22000F0A3F802221549222000F07EF8C4
:1015B000FFF7CAFE12480078C0001149497840EA96
:1015C0006110104908800846B0F90000B0F5806F3E
:1015D00005DB08460088A0F5006000B208800948D5
:1015E000B0F9000000EE100AF8EEC00AB4EE001ADE
:1015F000B3EE070A00EE810A84ED070A10BD000071
:101600006E050020760500203005002040050020F2
:101610003405002070B504460D461C4804600020C7
:101620001B49087010F01CF919490978084318493A
:10163000087010F0CBF9164909780843144908706E
:101640001DB1144800F0C4F91CE09FED130A1148C5
:1016500080ED090A9FED110A80ED0A0A9FED0F0A3D
:1016600080ED0B0A9FED0E0A80ED0C0A90ED0C0A3E
:10167000DFED0C0A80EE801A80ED081A9FED0A0A51
:1016800080ED060A0248007870BD00007805002051
:101690003A0500200C750020AC38223BB016CE393C
:1016A0003F161B41C3F51C410000204270B50646A1
:1016B0000C46154646F0800000F018F806E055206C
:1016C00000F014F82070641C681EC5B2002DF6D11D
:1016D00070BD70B504460D4644F0800000F006F879
:1016E000552000F003F8287070BD000001B582B0ED
:1016F0004FF47A70012301AA02A900900348006800
:1017000004F080FC9DF804000EBD00007805002068
:1017100070B505460C462846FFF7E8FF2046FFF760
:10172000E5FF70BDD2ED020A92ED021AB6EE000A94
:1017300000EEC10AD2ED030A92ED031A00EEC10ACF
:10174000D0ED000A20EE200AD2ED010A92ED021A35
:1017500060EE810A92ED001AD2ED031A41EE610AA1
:1017600090ED011A00EE810AD2ED010A92ED031A02
:1017700060EE810A92ED001AD2ED021A41EE210AC2
:1017800090ED021A00EE810AF0EE000A20EE200A27
:1017900081ED000A92ED010AD2ED020A20EE200A44
:1017A000D2ED000A92ED031A00EE810AD0ED000A94
:1017B00060EE200A92ED011AD2ED011AB6EE000A8F
:1017C00001EE610AD2ED031A92ED032AB0EE401A3F
:1017D00001EEC21AD0ED011AB0EE600A01EE210A44
:1017E000D2ED020A92ED031A60EE810A92ED001A20
:1017F000D2ED011A41EE610A90ED021A00EE810A63
:10180000F0EE000A20EE200A81ED010A92ED010AB5
:10181000D2ED030A20EE200AD2ED000A92ED021A60
:1018200000EEC10AD0ED000A20EE200AD2ED020A35
:1018300092ED031A60EE810A92ED001AD2ED011AC0
:1018400041EE210A90ED011A00EE810A92ED011A93
:10185000D2ED011AF6EE000A41EE610A92ED021A8B
:10186000D2ED021A41EE610A90ED021A00EE810AF1
:10187000F0EE000A20EE200A81ED020A704700BF58
:10188000FEE7000010B5024801F0D6FC10BD0000D4
:10189000780C002010B5024801F0CEFC10BD00000D
:1018A000A00C002038B5044640F241100D490860F4
:1018B00000208860C86008200861A1200A490870DB
:1018C000002048708870C8700C71200A4871002090
:1018D0008871C8716B460A460249044801F0B1FAA2
:1018E00038BD00002C82002070090020780C0020F8
:1018F00038B504464FF4A1700D4908600020886097
:10190000C86008200861A1200A49087000204870BA
:101910008870C8700C71200A487100208871C871E5
:101920006B460A460249044801F08BFA38BD0000B4
:101930002C82002070090020780C00200346042B24
:1019400015D007DC7BB1012B0ED0022B0DD0032B61
:1019500012D10BE0202B0BD0212B0AD0222B09D047
:10196000232B09D107E008E007E006E005E004E0EA
:1019700003E002E001E000E000BF00BF002070478C
:101980000020704710B50022044905480AF0ABFC5E
:10199000044903480AF098FC002010BDD81F00201D
:1019A000FC120020D817002070B504460D462146D1
:1019B00003480AF089FC02480AF052FC002070BD7E
:1019C000FC12002010B503460C460021084610BD4D
:1019D00070B52DED048B88B004460020069007906A
:1019E00000F08AFBFE4880ED000A00BF00F084FB97
:1019F000FB48D0ED000A30EE600AF2EE040AB4EEC5
:101A0000E00AF1EE10FA14DD9FEDF60A84ED090A02
:101A10009FEDF50A84ED0A0A9FEDF30A84ED0B0AA7
:101A20009FEDF20A84ED0C0A9FEDF10A84ED060A9F
:101A300055E29FEDF00A00F01BFB9FEDEF0A84EDED
:101A40000C0A9FEDED0A84ED090A9FEDEB0A84ED87
:101A50000A0A9FEDE90A84ED0B0A002673E1FFF7FD
:101A60007DFC9220FFF742FE062206A91220FFF716
:101A70001DFEFFF769FC9DF81900000200B29DF8F9
:101A8000181040EA010500EE105AB8EEC00ADB4813
:101A9000D0ED000A20EE200A84ED000A9DF81B001C
:101AA000000200B29DF81A1040EA010500EE105A3B
:101AB000B8EEC00AD148D0ED000A20EE200A84ED2D
:101AC000010A9DF81D00000200B29DF81C1040EABA
:101AD000010500EE105AB8EEC00AC848D0ED000A61
:101AE00020EE200A84ED020AD4ED000A60EEA00A7E
:101AF00094ED011AD4ED011A41EE210A94ED021A77
:101B0000D4ED021A41EE210AB0EE600A0FF038FE61
:101B1000B0EE408A94ED0C0A30EE080A84ED0C0A0F
:101B2000FFF730FC082206A90020FFF7BFFDFFF7F2
:101B30001FFC9DF818000F2850D19DF81B000002D3
:101B400000B29DF81A1040EA010500EE105AB8EEF6
:101B5000C00AAB48D0ED000A20EE200A84ED030A4B
:101B600094ED090AD4ED030A30EE200A84ED090A47
:101B70009DF81D00000200B29DF81C1040EA01050E
:101B800000EE105AB8EEC00A9D48D0ED000A20EED3
:101B9000200A84ED040A94ED0A0AD4ED040A30EE1A
:101BA000200A84ED0A0A9DF81F00000200B29DF889
:101BB0001E1040EA010500EE105AB8EEC00A904827
:101BC000D0ED000A20EE200A84ED050A94ED0B0A00
:101BD000D4ED050A30EE200A84ED0B0A06BBF0EEC8
:101BE000488AB0EE489A002017E004F10C0101EB9E
:101BF000800191ED000A03A901EB800181ED000A4B
:101C000004F10C0101EB800191ED000A694601EB42
:101C1000800181ED000A411CC8B20328E5DB49E0E0
:101C2000B4EEE88AF1EE10FA01DDF0EE488AB4EE87
:101C3000C98AF1EE10FA01D2B0EE489A002037E0DE
:101C400004F10C0101EB800191ED000A03A901EB05
:101C50008001D1ED000AB4EEE00AF1EE10FA0ADDDF
:101C600004F10C0101EB800191ED000A03A901EBE5
:101C7000800181ED000A04F10C0101EB800191ED7E
:101C8000000A694601EB8001D1ED000AB4EEE00ADA
:101C9000F1EE10FA0AD204F10C0101EB800191ED92
:101CA000000A694601EB800181ED000A411CC8B2BF
:101CB0000328C5DB38EEC90A524880ED000A00202F
:101CC00012E003A901EB800191ED000A694601EBE6
:101CD0008001D1ED000A30EE600A4B4901EB800132
:101CE00081ED000A411CC8B20328EADB454890EDAB
:101CF000000AF6EE000AB4EEE00AF1EE10FA1BDC80
:101D0000414890ED000ADFED410AB4EEE00AF1EE41
:101D100010FA11DC90ED010ADFED3C0AB4EEE00AA6
:101D2000F1EE10FA08DC90ED020ADFED380AB4EEAD
:101D3000E00AF1EE10FA00DD0AE09FED350A00F04E
:101D400097F9701C86B2334800888642FFF687AE4A
:101D500000BFD4ED0C0A2F48008800EE100AB8EE40
:101D6000400A80EE801A84ED0C1A002015E004F180
:101D7000240101EB8001D1ED000A2649098800EE1B
:101D8000101AB8EE400A80EE801A04F1240101EB2B
:101D9000800181ED001A411CC8B20328E7DBFFF780
:101DA000DDFAA220FFF7A2FC022206A92220FFF7FB
:101DB0007DFCFFF7C9FA9DF81800C0009DF81910C6
:101DC00040EA6115B5F5806F02DBA5F5006005B24C
:101DD00000EE105AF8EEC00AB4EE001A1CE0000043
:101DE00068050020AC38223BB016CE393F161B41A7
:101DF000000020420AD7A33B00000000300500206D
:101E0000340500203C050020007500209A99193EF9
:101E10006F12033A6C050020B3EE070A00EE810A48
:101E200084ED060A34480088401C00B2324908801C
:101E3000324890ED000AF6EE000AB4EEE00AF1EE48
:101E400010FA3FF7D3AD94ED0C0ADFED2D0A30EE1A
:101E5000600AB0EEC00AF6EE000AB4EEE00AF1EE57
:101E600010FAEEDC274890ED000A5FED180AB4EE98
:101E7000E00AF1EE10FAE4DC90ED010A5FED1D0AD4
:101E8000B4EEE00AF1EE10FADBDC90ED020A5FED51
:101E9000210AB4EEE00AF1EE10FAD2DC94ED090A60
:101EA000B0EEC00ADFED180AB4EEE00AF1EE10FA67
:101EB000C7DC94ED0A0AB0EEC00ADFED130AB4EEF7
:101EC000E00AF1EE10FABCDC94ED0B0AB0EEC00AA9
:101ED000DFED0D0AB4EEE00AF1EE10FAB1DC00BF5E
:101EE00094ED0C0ADFED090A80EE801A84ED081AE1
:101EF00008B0BDEC048B70BD420500203C050020FD
:101F0000CDCC1C41007500200AD7233CC3F51C41F1
:101F100010B5024801F0D6FD10BD0000F4110020FC
:101F200010B5024801F0CEFD10BD00005412002093
:101F300010B5024801F0C6FD10BD0000A00E002043
:101F400010B5024801F0BEFD10BD000034110020A4
:101F500010B5024801F0B6FD10BD0000941100203C
:101F60000146087810381823B0FBF3F20848805C6B
:101F7000C865032A05D908686FF30900001D886544
:101F800003E008686FF309008865886D70470000FA
:101F9000A84A0108014600208A6A8B69CBB932B190
:101FA000012A0DD0022A03D0032A10D10EE000BF6F
:101FB000CB6A03F08073B3F1807F00D1012007E08A
:101FC000CB6AB3F1C07F00D1012001E000E000BF87
:101FD00034E08B69B3F5005F1AD132B1012A07D022
:101FE000022A03D0032A11D10AE000BF01200EE02B
:101FF000CB6A03F08073B3F1807F00D1012006E04B
:10200000CB6AB3F1C07F00D1012000E000BF15E032
:1020100032B1012A05D0022A04D0032A0CD103E0F0
:1020200000BF00BF012008E0CB6A03F08073B3F16A
:10203000807F00D1012000E000BF00BF704700009A
:1020400008B5084840680090074900980968884228
:1020500004D206480068401C044908600249009800
:10206000086008BD001000E000050020FC0400200E
:102070000C494868F0EE400A00BF0A494968091A4D
:1020800001EE101AF8EE411A074991ED001AB8EE68
:10209000411A20EE811AF4EEC11AF1EE10FAECD3D7
:1020A00070470000001000E0F004002010B52DED96
:1020B000028B82B004460E48406801902068019966
:1020C000081A00EE100AF8EE400A0A4890ED000ADD
:1020D000B8EE400A80EE801AB0EE418A0198206086
:1020E000FFF7AEFFB0EE480A02B0BDEC028B10BDA8
:1020F000001000E0F004002010B52DED028B00F080
:1021000059F80F4890ED000AB8EE400A808800EEBA
:10211000900AF8EE600A9FED0B1A00EE810A08485B
:10212000C08800EE900AF8EE600A9FED071A00EEF4
:10213000810AB0EE408AB0EE480ABDEC028B10BDB9
:10214000E80400206F12833ABD37863512490968CA
:1021500041F08071104A11600021104A516011460F
:10216000096841F0010111600D4941430D4A1160B8
:10217000114609684FF47A72B1FBF2F10A4A116014
:1021800008490968064AB1FBF2F1084A11600021CA
:10219000074A116070470000FCED00E0001000E00D
:1021A00040420F00F0040020F4040020F804002056
:1021B000FC04002038B5294840680090FFF740FF34
:1021C000274800684FF0FF31A0FB01310098181834
:1021D00041F10001234A03C2234800232149026838
:1021E00003C9FEF715FE214A03C220480CC81E4849
:1021F00000680024A2FB001503FB005002FB040250
:102200001848D0E90030591A60EB0200184AC2E9B8
:102210000010164800681749086017480023144941
:10222000026803C9FEF7F4FD1249888008468088D9
:102230001149096841430E48D0E90030591A60F14C
:1022400000000E4AC2E900100D4800230B49026845
:1022500003C9FEF7DDFD0749C88038BD001000E066
:10226000FC04002008050020F004002010050020D8
:1022700018050020E8040020F404002020050020B8
:10228000F8040020704710B5012001F0C7FD10BD13
:1022900010B5082001F0C2FD10BD10B5102001F0EE
:1022A000BDFD10BD10B5202001F0B8FD10BDD2ED70
:1022B000020A92ED021AB6EE000A00EEC10AD2ED51
:1022C000030A92ED031A00EEC10AD0ED000A20EED7
:1022D000200AD2ED010A92ED021A60EE810A92ED17
:1022E000001AD2ED031A41EE210A90ED011A00EE18
:1022F000810AD2ED010A92ED031A60EE810A92ED95
:10230000001AD2ED021A41EE610A90ED021A00EEB7
:10231000810AF0EE000A20EE200A81ED000A92ED1B
:10232000010AD2ED020A20EE200AD2ED000A92ED57
:10233000031A00EEC10AD0ED000A60EE200A92ED09
:10234000011AD2ED011AB6EE000A01EE610AD2EDD1
:10235000031A92ED032AB0EE401A01EEC21AD0ED34
:10236000011AB0EE600A01EE210AD2ED020A92EDE6
:10237000031A60EE810A92ED001AD2ED011A41EEC5
:10238000210A90ED021A00EE810AF0EE000A20EE1A
:10239000200A81ED010A92ED010AD2ED030A20EE36
:1023A000200AD2ED000A92ED021A00EE810AD0ED69
:1023B000000A20EE200AD2ED020A92ED031A60EE26
:1023C000810A92ED001AD2ED011A41EE610A90EDF8
:1023D000011A00EE810A92ED011AD2ED011AF6EE11
:1023E000000A41EE610A92ED021AD2ED021A41EEA4
:1023F000610A90ED021A00EE810AF0EE000A20EE6A
:10240000200A81ED020A704772B600BFFEE70000A5
:1024100000B52DED060B2DED108B8FB0F0EE60EAC0
:10242000B0EE41AAF0EE61AA9FEDBC0A8DED0E0A56
:102430009FEDBA0AB0EE408A9DED1F0AFDF796FFA8
:102440008DED050A9DED1F0AFDF7CCFF8DED030A0A
:10245000B0EE6E0AFDF78AFF8DED040AB0EE6E0A4B
:10246000FDF7C0FF8DED020A9DED050ADFEDAC0A18
:102470009FEDAC1A41EE000AB0EE60BA9DED040A81
:10248000DFEDA90A9FEDA71A41EE000AF0EE60BA4F
:102490009DED030ADFEDA30A20EE200AF0EE408A4C
:1024A0009DED020ADFED9F0A20EE200AB0EE409A71
:1024B0007BEECB0A60EEA00A39EE681A79EE681A54
:1024C00041EE210AB0EE600A0EF01DFEB0EE40FAB9
:1024D0003BEECB0ADFED950A20EE200A8DED0D0ACA
:1024E00039EE680ADFED910A20EE200AF0EE40CACC
:1024F0009FED8F0A0FEE0F0ADFED8D0A30EE600AB6
:10250000B0EE40DADDED0D0A60EEA00A4CEEAC0A4A
:102510004DEE4D0AB0EE600A0EF0F5FD70EE2C0A9D
:102520009DED0D0A30EE0D0A80EE801AF0EE41FAB4
:10253000B0EE6F0A0EF0D6FDF0EE000A20EE200A93
:10254000F0EE40DAB0EE6D0AFDF710FF9FED791A5C
:10255000F0EE4B0A40EE010AB0EE60CAB0EE6D0A32
:10256000FDF740FF9FED731AF0EE680A40EE010A96
:10257000F0EE609A6CEE0C0A49EEA90AB0EE600A21
:102580000EF0C1FD8DED0E0A89EE8C0AF0EE40FAD8
:102590000EF0A8FDB0EE408AB1EE4A0ADFED610A06
:1025A00060EE200A9DED030A20EE800A8DED0B0AF5
:1025B0009FED5C0A6AEE000A9DED050A20EE800A96
:1025C0008DED090AB1EE6A0ADFED560A60EE200AC7
:1025D0009DED020A20EE800A8DED0A0A9FED510A58
:1025E0006AEE800A9DED040A20EE800A8DED080A4D
:1025F00039EEC90A7CEE6B0A80EE201AF0EE41FA41
:10260000B0EE6F0A0EF06EFDB0EE40EAB0EE4E0A8C
:10261000FDF7ACFEDDED0A0A9DED0B1A70EEC10A66
:1026200060EE20FAB0EE4E0AFDF7DCFEDDED080AA2
:102630009DED091A70EEC10A40EE80FA7EEE6D0A39
:10264000B0EE600AFDF7CEFEDFED3A0A20EE200A7A
:10265000CFEE800ACDED0C0AB0EE6D0AFDF7C2FE9A
:10266000F0EE400A9DED0C0A9FED321A20EE011AA1
:102670009DED0B0A01EE600A8DED070AB0EE6D0AC2
:10268000FDF774FEF0EE400A9DED0C0A9FED291A4D
:1026900020EE011A9DED090A01EE200A8DED060AD1
:1026A000B0EE480AF0EEC00AF0EE60FAB0EE6F0A43
:1026B000FDF798FEF1EE400A9DED070A60EE80FA04
:1026C000B0EE480AFDF752FEDDED060A40EE60FA74
:1026D000B0EE080A2FEE800A8DED010AB5EEC08A31
:1026E000F1EE10FA05D29FED140A38EE000AB0EEB2
:1026F000408A9DED0E0A114880ED6C0A80ED6D8ACE
:102700009DED010A80ED6F0AC0ED50DA80ED51EACF
:102710000FB0BDEC108B06B000BD00000000000043
:10272000CDCCCCBD295C0F3ECDCCCC3D295C0F3F40
:102730002E90A03D295C8F3EDA0F49407870002032
:1027400000B52DED060B2DED108B8FB0F0EE60EA8D
:10275000B0EE41AAF0EE61AA9FEDBC0A8DED0E0A23
:102760009FEDBA0AB0EE408A9DED1F0AFDF7FEFD0F
:102770008DED050A9DED1F0AFDF734FE8DED030A70
:10278000B0EE6E0AFDF7F2FD8DED040AB0EE6E0AB2
:10279000FDF728FE8DED020A9DED050ADFEDAC0A7E
:1027A0009FEDAC1A41EE000AB0EE60BA9DED040A4E
:1027B000DFEDA90A9FEDA71A41EE000AF0EE60BA1C
:1027C0009DED030ADFEDA30A20EE200AF0EE408A19
:1027D0009DED020ADFED9F0A20EE200AB0EE409A3E
:1027E0007BEECB0A60EEA00A39EE681A79EE681A21
:1027F00041EE210AB0EE600A0EF085FCB0EE40FA20
:102800003BEECB0ADFED950A20EE200A8DED0D0A96
:1028100039EE680ADFED910A20EE200AF0EE40CA98
:102820009FED8F0A0FEE0F0ADFED8D0A30EE600A82
:10283000B0EE40DADDED0D0A60EEA00A4CEEAC0A17
:102840004DEE4D0AB0EE600A0EF05DFC70EE2C0A03
:102850009DED0D0A30EE0D0A80EE801AF0EE41FA81
:10286000B0EE6F0A0EF03EFCF0EE000A20EE200AF9
:10287000F0EE40DAB0EE6D0AFDF778FD9FED791AC3
:10288000F0EE4B0A40EE010AB0EE60CAB0EE6D0AFF
:10289000FDF7A8FD9FED731AF0EE680A40EE010AFD
:1028A000F0EE609A6CEE0C0A49EEA90AB0EE600AEE
:1028B0000EF029FC8DED0E0A89EE8C0AF0EE40FA3E
:1028C0000EF010FCB0EE408AB1EE4A0ADFED610A6C
:1028D00060EE200A9DED030A20EE800A8DED0B0AC2
:1028E0009FED5C0A6AEE000A9DED050A20EE800A63
:1028F0008DED090AB1EE6A0ADFED560A60EE200A94
:102900009DED020A20EE800A8DED0A0A9FED510A24
:102910006AEE800A9DED040A20EE800A8DED080A19
:1029200039EEC90A7CEE6B0A80EE201AF0EE41FA0D
:10293000B0EE6F0A0EF0D6FBB0EE40EAB0EE4E0AF3
:10294000FDF714FDDDED0A0A9DED0B1A70EEC10ACC
:1029500060EE20FAB0EE4E0AFDF744FDDDED080A08
:102960009DED091A70EEC10A40EE80FA7EEE6D0A06
:10297000B0EE600AFDF736FDDFED3A0A20EE200AE0
:10298000CFEE800ACDED0C0AB0EE6D0AFDF72AFD00
:10299000F0EE400A9DED0C0A9FED321A20EE011A6E
:1029A0009DED0B0A01EE600A8DED070AB0EE6D0A8F
:1029B000FDF7DCFCF0EE400A9DED0C0A9FED291AB4
:1029C00020EE011A9DED090A01EE200A8DED060A9E
:1029D000B0EE480AF0EEC00AF0EE60FAB0EE6F0A10
:1029E000FDF700FDF1EE400A9DED070A60EE80FA6A
:1029F000B0EE480AFDF7BAFCDDED060A40EE60FADB
:102A0000B0EE080A2FEE800A8DED010AB5EEC08AFD
:102A1000F1EE10FA05D29FED140A38EE000AB0EE7E
:102A2000408A9DED0E0A114880ED6C0A80ED6D8A9A
:102A30009DED010A80ED6F0AC0ED50DA80ED51EA9C
:102A40000FB0BDEC108B06B000BD00000000000010
:102A5000CDCCCCBD295C0F3ECDCCCC3D295C0F3F0D
:102A60002E90A03D295C8F3EDA0F4940686E002011
:102A700070B50A480468001D0568001D06683444E6
:102A800054B108220649204606F00AF904220449F6
:102A90001031284606F004F970BD0000107AFF1FBF
:102AA0004E00002010B586B00246A2F2013030B1CF
:102AB00001281BD0022830D0032857D13FE0002046
:102AC00008E00B5C05AC2354031DCB5C04AC235421
:102AD000431CD8B20428F4DB9DED050A254880ED9F
:102AE000030A9DED040A80ED040A3FE0002008E09F
:102AF0000B5C03AC2354031DCB5C02AC2354431C7E
:102B0000D8B20428F4DB9DED030A1A4880ED050ACB
:102B10009DED020A80ED060A28E00878154B187032
:102B2000487898708878D870C87818710879587182
:102B3000487998718879D871C879187216E00020A0
:102B400008E00B5C01AC2354031DCB5C0DF8003096
:102B5000431CD8B20428F4DB9DED010A054880ED42
:102B6000070A9DED000A80ED080A00BF00BF06B00D
:102B700010BD0000BC81002038B502460020009046
:102B800000BF92F83C00012801D1022038BD01208D
:102B900082F83C0000BF0868092816D91068C06890
:102BA0000C780A3C04EB44050724AC40A0431468AD
:102BB000E0600C780A3C04EB44048868A040146888
:102BC000E46820431468E06013E0106800690C7842
:102BD00004EB44050724AC40A043146820610C7842
:102BE00004EB44048868A0401468246920431468F6
:102BF00020614868072817D21068406B0C79641E62
:102C000004EB84051F24AC40A0431468606308886B
:102C100080B20C79641E04EB8404A0401468646BD9
:102C200020431468606331E048680D2817D21068AB
:102C3000006B0C79E41F04EB84051F24AC40A04317
:102C400014682063088880B20C79E41F04EB8404C4
:102C5000A0401468246B20431468206316E01068B9
:102C6000C06A0C790D3C04EB84051F24AC40A043E2
:102C70001468E062088880B20C790D3C04EB84048F
:102C8000A0401468E46A20431468E062194B1A4CAF
:102C90001068A04206D10868122803D1586840F491
:102CA00080005860144C1068A0421CD1086810289D
:102CB00002D00868112816D1586840F40000586006
:102CC000086810280FD10D4800680D4CB0FBF4F0D7
:102CD00000EB80004000009002E00098401E009051
:102CE00000980028F9D100BF002082F83C0000BF06
:102CF00000BF4BE700230140002001408800002076
:102D000040420F0070B5044600250CB9012070BD8B
:102D10001549A06A884200D000BF206C30B9204617
:102D200000F024F80020606484F83C00206C00F07F
:102D3000100088B9206C20F4885040F00200206414
:102D40002046FEF751FA00206064206C20F002005B
:102D500040F00100206400E0012500BF002084F85D
:102D60003C0000BF2846D2E70100000F10B586B036
:102D70000446142101A8FEF716F923492068884269
:102D80000FD100BF002000902048006840F4807000
:102D90001E4908600846006800F48070009000BF7B
:102DA0002FE01B49206888422BD100BF00200090F3
:102DB0001648006840F480601449086008460068BE
:102DC00000F48060009000BF00BF00BF00200090B2
:102DD0000E481438006840F020000C49143908608F
:102DE0000846006800F02000009000BF00BF0815F2
:102DF0000190032002900020039001A9054801F0F2
:102E00001BF806B010BD000000200140443802400D
:102E1000002201400014024010B5024692F8203012
:102E2000012B01D0022B06D11068406908431468B9
:102E30006061002010BD506A40F480205062012083
:102E4000F8E7F0B504460D461E4694F82070206859
:102E50008368A86800B900E000BF012F01D0022FED
:102E60007CD103F0806030B903F0006018B903F042
:102E70008050002873D0C3F30161022905D9606A2C
:102E800040F4000060620120F0BD01208840306005
:102E9000A86860B9B5F800C0E86840EA4C5C2068F2
:102EA00000F5C07000EB0110C0F800C00FE0D5E9DC
:102EB00001C040EACC00D5F80CC040EA0C00D4F8C0
:102EC00000C00CF5C07C0CEB011CCCF80000D5F860
:102ED00010C0206800F5C07000EB0110C0F804C0FD
:102EE000287D01280ED1206800F5C07000EB01108C
:102EF000406840F4807C206800F5C07000EB011051
:102F0000C0F804C0D079000692F806C040EA0C4030
:102F100092F805C040EA0C2C10794CEA000C2068AD
:102F200000F5C07000EB0110C0F80CC0D0780006AE
:102F300092F802C040EA0C4092F801C040EA0C202E
:102F400092F800C040EA0C00D4F800C00CF5C07C38
:102F50000CEB011CCCF80800206801E016E00FE043
:102F600000F5C07000EB0110006840F0010C206813
:102F700000F5C07000EB0110C0F800C0002083E72E
:102F8000606A40F40010606201207DE7606A40F4EE
:102F900080206062012077E7F0B504460A46216888
:102FA00094F82050012D01D0022D7ED1424901F527
:102FB0000071086840F001000860086820F47C5047
:102FC00008600868566A40EA06200860107D00F034
:102FD0001F06012000FA06F3C8699843C861A1F5ED
:102FE0000071D069C8B9D1F80C029843C1F80C023D
:102FF000908880B2968940EA064601F510705769BC
:1030000040F83760108880B2168940EA064601F51C
:103010001070576900EBC7004660D069012819D1CC
:10302000D1F80C021843C1F80C02908880B21688BF
:1030300040EA064601F51070576940F837609089FC
:1030400080B2168940EA064601F51070576900EB18
:10305000C7004660906928B9D1F804029843C1F8C6
:10306000040204E0D1F804021843C1F80402106914
:1030700028B9D1F814029843C1F8140204E0D1F839
:1030800014021843C1F81402106A012804D1D1F8BF
:103090001C021843C1F81C02D1F8000220F0010004
:1030A000C1F800020020F0BDFFE7606A40F4802014
:1030B00060620120F7E7000000640040704770B5CF
:1030C000044694F82050012D01D0022D7DD151B934
:1030D0002068C06800F0030080B9606A40F4001006
:1030E0006062012070BD2068006900F0030028B90B
:1030F000606A40F4001060620120F3E7206800F588
:10310000D87000EB0110006800F004009060906837
:1031100040B9206800F5D87000EB01100068400D40
:10312000106007E0206800F5D87000EB011000681F
:10313000C0085060206800F5D87000EB01100068EE
:1031400000F00200D060206800F5D87000EB01109C
:10315000406800F00F001061206800F5D87000EBA7
:103160000110406800F47F40000A9061206800F57B
:10317000D87000EB01104068000C5061206800F529
:10318000D87000EB011080681870206800F5D870C6
:1031900000EB0110806800F47F40000A587020683E
:1031A00000F5D87000EB0110806800F47F00000C7F
:1031B0009870206800F5D87000EB01108068000E50
:1031C000D870206800F5D87000E02FE000EB011007
:1031D000C0681871206800F5D87000EB0110C06855
:1031E00000F47F40000A5871206800F5D87000EBA9
:1031F0000110C06800F47F00000C9871206800F591
:10320000D87000EB0110C068000ED87131B9206889
:10321000C06840F020002668F06005E02068006982
:1032200040F020002668306100205BE7606A40F4CF
:1032300080206062012055E72DE9F05F04460025FB
:10324000206846692068D0F8049020688768206864
:10325000D0F80CA02068D0F810B02068D0F8188002
:1032600006F00100002855D007F00100C0B1012090
:103270002168886007F0020018B1204600F0B1FB19
:103280000EE007F0040010B145F4006508E007F017
:10329000080010B145F4805502E0204600F0A0FB84
:1032A00007F48070C8B14FF480702168886007F41B
:1032B000007018B1204600F096FB0EE007F4806025
:1032C00010B145F4005508E007F4006010B145F472
:1032D000804502E0204600F085FB07F48030C8B14D
:1032E0004FF480302168886007F4003018B1204620
:1032F00000F07BFB0EE007F4802010B145F40045A0
:1033000008E007F4002010B145F4803502E02046C3
:1033100000F06AFB06F0080038B10AF0100020B196
:1033200045F4007510202168C86006F0040040B123
:103330000AF0080028B108202168C860204600F083
:103340000DFA06F0020038B12068C06800F00300F2
:1033500010B1204600F004FA06F0400038B10BF03E
:10336000100020B145F4806510202168086106F046
:10337000200040B10BF0080028B108202168086146
:10338000204600F0FBFA06F0100038B12068006912
:1033900000F0030010B1204600F0F1FA06F400300E
:1033A00040B109F0100028B1102021684860204683
:1033B00000F0E6FA06F4803040B109F0080028B1C8
:1033C000082021684860204600F010FB06F4004009
:1033D00088B309F0040078B306F4807020B108F0D7
:1033E000010008B145F0010506F4007020B108F0B5
:1033F000020008B145F0020506F4806020B108F033
:10340000040008B145F0040506F40060A0B108F01E
:10341000700088B108F07000402817D006DC102832
:103420000BD020280CD0302819D10CE0502810D017
:10343000602814D110E01DE019E045F008050FE008
:1034400045F010050CE045F0200509E045F0400589
:1034500006E045F0800503E045F4807500E000BF1C
:1034600000BF2068806920F0700021688861042016
:10347000216848602DB1606A284360622046FFF7EA
:103480001DFEBDE8F09F70B504460CB9012070BD6B
:1034900094F8200010B9204600F0B0F820680068C9
:1034A00040F001002168086000F0C6FD05460DE00F
:1034B00000F0C2FD401B0A2808D9606A40F40030C1
:1034C0006062052084F820000120E0E72068406861
:1034D00000F001000028EBD02068006820F0020016
:1034E0002168086000F0A8FD05460DE000F0A4FD8D
:1034F000401B0A2808D9606A40F400306062052049
:1035000084F820000120C2E72068406800F0020033
:103510000028EBD1207E012806D12068006840F009
:1035200080002168086005E02068006820F08000C5
:1035300021680860607E012806D12068006840F09C
:1035400040002168086005E02068006820F0400025
:1035500021680860A07E012806D12068006840F03C
:1035600020002168086005E02068006820F0200045
:1035700021680860E07E012806D12068006820F0FC
:1035800010002168086005E02068006840F0100025
:1035900021680860207F012806D12068006840F07B
:1035A00008002168086005E02068006820F0080035
:1035B00021680860607F012806D12068006840F01B
:1035C00004002168086005E02068006820F004001D
:1035D00021680860D4E90201084321690843616950
:1035E00008436168491E08432168C8610020606281
:1035F000012084F82000002049E7000010B586B0C3
:103600000446142101A8FDF7CEFC4E4920688842EB
:1036100041D14D480068401C4B490860084600688D
:1036200001280FD100BF002000904848006840F0FA
:103630000070464908600846006800F0007000907D
:1036400000BF00BF00BF0020009040481038006855
:1036500040F008003D49103908600846006800F055
:103660000800009000BF00BF0320019002200290DC
:1036700000200390032004900920059001A93448FC
:1036800000F0DAFB00220621142000F009FF1420CC
:1036900000F0F6FE54E02F492068884250D100BF68
:1036A000002000902948006840F0806027490860A9
:1036B0000846006800F08060009000BF00BF22480C
:1036C0000068401C204908600846006801280FD1A6
:1036D00000BF002000901D48006840F000701B49AA
:1036E00008600846006800F00070009000BF00BF4E
:1036F00000BF0020009015481038006840F002001C
:103700001249103908600846006800F00200009075
:1037100000BF00BF602001900220029000200390B3
:10372000032004900920059001A90B4800F084FBB8
:1037300000220521402000F0B3FE402000F0A0FE52
:1037400006B010BD00640040140000204038024064
:10375000000C024000680040000402407047000076
:1037600010B58EB004467E49206888427DD17D4BDD
:1037700007AA00212046FFF7A2FC0798A0F24110FB
:1037800010B1012872D100E000BF0798A0F24110EB
:10379000754908700846007800EB4000734931F81D
:1037A00020007149097801EB4101704A02EB810167
:1037B00008816C4880796B49C97940EA01206A49DF
:1037C000097801EB410122F821006648007965493A
:1037D000497940EA012000B26349097801EB4101CF
:1037E00002EB810148805F4880785E49C97840EAF1
:1037F000012000B25C49097801EB410102EB810133
:103800008880584840785849097801EB410102EB1B
:10381000810188715449097801EB410132F8211086
:10382000514A127802EB4202504B03EB820212899A
:10383000881A002801DB014600E04142B1F5004F43
:1038400051DB4948007800EB4000484931F820003E
:103850004CF6203188421FDB4348007800EB4000E3
:10386000424901EB8000008901E03EE03CE0B0F518
:10387000FA5F11DC3C48007800EB400001EB80006F
:103880004089401E00B23849097801EB4101374AAE
:1038900002EB8101488126E03348007800EB4000CC
:1038A000324931F82000B0F5FA5F1CDC2E48007870
:1038B00000EB400001EB800000894CF6203188428B
:1038C00011DB2948007800EB4000284901EB80001B
:1038D0004089401C00B22449097801EB4101234A88
:1038E00002EB8101488100BF00BF21492068884266
:1038F00033D1204B6A4600212046FFF7E0FB40F21F
:1039000005320098811A904216D009DCA0F20130ED
:1039100070B101280DD002280CD0032813D10AE081
:1039200001290AD0022909D0A1F20E4159B90BE0B0
:1039300000BF00BF00BF00BF00BF00BF0D4900981F
:10394000FFF7B0F808E007E00B480A490A8802834D
:10395000897881760FF0E4FA00BF0EB010BD000048
:10396000006400404482002090090020A4810020CF
:10397000006800404E820020BC81002070477047E4
:10398000704770B5044694F82000012822D1022027
:1039900084F820002068006820F001002168086099
:1039A00000F04AFB05460DE000F046FB401B0A28EC
:1039B00008D9606A40F400306062052084F8200075
:1039C000012070BD2068406800F001000028EBD1A4
:1039D0006062F6E7606A40F4002060620120F0E770
:1039E000704770477047704770477047704770B5B1
:1039F0000446A56D00F020FB064694F83500022829
:103A000008D08020606500BF002084F8340000BF2B
:103A1000012070BD2068006820F016002168086051
:103A20002068406920F0800021684861206C08B956
:103A3000A06C28B12068006820F0080021680860A8
:103A40002068006820F001002168086010E000F0A4
:103A5000F3FA801B05280BD920206065032084F829
:103A6000350000BF002084F8340000BF0320D0E7F9
:103A70002068006800F001000028E8D194F85C108C
:103A80003F208840A860012084F8350000BF002056
:103A900084F8340000BF00BFBBE7014691F8350051
:103AA000022803D08020486501207047052081F856
:103AB00035000868006820F001000A6810600020E6
:103AC000F3E70000F8B50446002000908C48006839
:103AD0004FF41651B0FBF1F7A56D2E6894F85C1009
:103AE00008208840304098B12068006800F0040049
:103AF00070B12068006820F004002168086094F824
:103B00005C1008208840A860606D40F0010060658E
:103B100094F85C1001208840304068B1206840690A
:103B200000F0800040B194F85C1001208840A8604B
:103B3000606D40F00200606594F85C1004208840DD
:103B4000304068B12068006800F0020040B194F88D
:103B50005C1004208840A860606D40F0040060653F
:103B600094F85C1010208840304078B320680068DA
:103B700000F0080050B394F85C1010208840A86052
:103B80002068006800F4802080B12068006800F49C
:103B9000002028B9206CC8B12046216C884715E068
:103BA000A06C98B12046A16C88470FE0206800689F
:103BB00000F4807028B92068006820F008002168AF
:103BC0000860206C10B12046216C884794F85C1086
:103BD000202088403040002865D02068006800F030
:103BE000100000285FD094F85C1020208840A86066
:103BF00094F83500052828D12068006820F01600C8
:103C0000216808602068406920F0800021684861D0
:103C1000206C08B9A06C28B12068006820F008006A
:103C20002168086094F85C103F208840A86001205B
:103C300084F8350000BF002084F8340000BF206DF8
:103C400010B12046216D8847F8BD2068006800F457
:103C5000802080B12068006800F4002028B9606CE2
:103C600010B12046616C88471DE0E06BD8B120465A
:103C7000E16B884717E02068006800F4807068B93D
:103C80002068006820F0100021680860012084F896
:103C9000350000BF002084F8340000BFE06B10B195
:103CA0002046E16B8847606D38B3606D00F001001D
:103CB000F0B1052084F835002068006820F001008C
:103CC0002168086000BF0098401C0090B84200D9ED
:103CD00005E02068006800F001000028F3D100BF73
:103CE000012084F8350000BF002084F8340000BFB4
:103CF000E06C10B12046E16C884700BFA4E70000EB
:103D0000880000202DE9F0410446002500F094F9D8
:103D1000074614B90120BDE8F081606A00B100BF18
:103D2000022084F8350000BF002084F8340000BF72
:103D30002068006820F00100216808600AE000F0B7
:103D40007BF9C01B052805D920206065032084F875
:103D50003500E0E72068006800F001000028EED19F
:103D60002068056821480540D4E901010843E1685D
:103D700008432169084361690843A1690843E1696F
:103D80000843216A08430543606A042803D1D4E943
:103D90000B0108430543206805602068456925F04C
:103DA0000705606A0543606A04280DD1A06A0543CF
:103DB000E06A48B12046FEF7EDF828B14020606582
:103DC000012084F83500A6E7206845612046FEF70B
:103DD000C7F8064694F85C103F208840B060002089
:103DE0006065012084F83500002094E73F8010F0E2
:103DF00070B5044600F020F906462546681C10B14F
:103E000004480078054400BF00F016F9801BA84262
:103E1000FAD370BD840000207047000010B504463E
:103E200004480068204020B1024804602046FFF7A3
:103E3000F3FF10BD143C0140F8B502460B460025C7
:103E4000002400200021D6E0012606FA01F51E68B4
:103E500006EA0504AC4274D11E7906F00306012E71
:103E600004D01E7906F00306022E13D190684F008D
:103E70000326BE40B0434F00DE68BE403043906032
:103E8000506801268E40B0431E79C6F300168E405E
:103E9000304350601E7906F00306032E09D0D06827
:103EA0004F000326BE40B0434F009E68BE403043E3
:103EB000D0601E7906F00306022E13D1CF0802F15E
:103EC000200656F827004E07F70E0F26BE40B043D7
:103ED0004F07FF0E1E69BE403043CF0802F1200697
:103EE00046F8270010684F000326BE40B0431E79F5
:103EF00006F003064F00BE40304310605E6806F4D3
:103F00004036002E76D000BF002600963C4E366824
:103F100046F480463A4F3E603E46366806F4804698
:103F2000009600BF00BF374E8F0856F827008E0757
:103F3000370F0F26BE40B043334EB24202D10026A7
:103F400024E057E0314EB24201D101261EE0304E4E
:103F5000B24201D1022619E02E4EB24201D103260F
:103F600014E02D4EB24201D104260FE02B4EB24296
:103F700001D105260AE02A4EB24201D1062605E00B
:103F8000284EB24201D1072600E008268F073F0FD6
:103F9000BE4030431B4E8F0846F82700224E306843
:103FA000A0435E6806F4801606B120431E4E3060C2
:103FB000361D3068A0435E6806F4001606B1204343
:103FC000194E361D3060184E361F3068A0435E68AB
:103FD00006F4003606B12043134E361F3060361FFC
:103FE0003068A0435E6806F4803606B120430E4E6A
:103FF000083E3060491C1029FFF426AFF8BD0000D0
:1040000044380240083801400000024000040240E9
:1040100000080240000C0240001002400014024060
:1040200000180240001C0240083C01400AB18161B6
:1040300001E00B048361704701480068704700008D
:104040007C00002070B504460CB9012070BD94F8C6
:104050003D0028B9002084F83C00204600F0DAF842
:10406000242084F83D002068006820F001002168C9
:1040700008602068006840F40040216808602068FB
:10408000006820F400402168086001F01DFB05462F
:104090005C496068884206D85B48854201D20120AD
:1040A00007E0002005E05948854201D2012000E0E8
:1040B0000020012800D1C9E75548B5FBF0F620687B
:1040C000406820F03F003043216848604D496068F7
:1040D000884201D8701C07E04FF4967070434FF48B
:1040E0007A71B0FBF1F0401C2168096A21F03F01B0
:1040F00008432168086243496068884214D8681EF2
:1041000061684900B0FBF1F0401CC0F30B000428CB
:1041100001D204203DE0681E61684900B0FBF1F067
:10412000401CC0F30B0034E0A06838B9681E616819
:1041300001EB4101B0FBF1F0401C0AE0681E616830
:1041400001EBC10202EB0111B0FBF1F0401C40F4A5
:104150008040C0F30B0008B901201AE0A06848B9FC
:10416000681E616801EB4101B0FBF1F0401CC0F337
:104170000B000CE0681E616801EBC10202EB01114B
:10418000B0FBF1F0401CC0F30B0040F4804040F461
:1041900000402168C9694CF6FF72914308432168C9
:1041A000C861D4E9070108432168096821F0C0010A
:1041B000084321680860D4E903100843216889682E
:1041C00048F2FF329143084321688860D4E9050131
:1041D00008432168C96821F0FF0108432168C860CD
:1041E0002068006840F00100216808600020206419
:1041F000202084F83D000020206384F83E0000BFAA
:1042000024E70000A086010080841E0000093D0014
:1042100040420F0010B586B00446142101A8FCF7F7
:10422000C2FE4449206888422FD100BF0020009080
:104230004148006840F020003F4908600846006897
:1042400000F02000009000BF00BF0320019012206A
:10425000029001200390032004900420059001A9FE
:104260003648FFF7E9FD00BF0020009032481030CB
:10427000006840F48000304910310860084600684A
:1042800000F48000009000BF51E02D492068884272
:104290004DD100BF002000902748006840F0040086
:1042A000254908600846006800F00400009000BF3F
:1042B00000BF00BF002000900846006840F00100E9
:1042C00008600846006800F00100009000BF00BFD1
:1042D00048150190122002900020039003200490C2
:1042E0000420059001A91748FFF7A6FD4FF4807040
:1042F00001901220029000200390032004900420DB
:10430000059001A91048FFF797FD00BF002000901D
:1043100009481030006840F4000007491031086077
:104320000846006800F40000009000BF00BF06B01F
:1043300010BD000000580040303802400014024018
:10434000005C004000080240000002400348006892
:104350000349097808440149086070477C0000203F
:104360008400002010B50D48006840F400700B492F
:1043700008600846006840F48060086008460068ED
:1043800040F480700860032000F0C8F80F2000F0AF
:1043900007F800F04BF8002010BD0000003C024080
:1043A00070B588B00446002500260022214637203B
:1043B00000F076F8372000F063F800BF002001908D
:1043C0001648006840F0200014490860084600685C
:1043D00000F02000019000BF00BF02A903A801F077
:1043E0004BF901F071F945000D48B5FBF0F0461EA0
:1043F0000C480D49086040F2E7310B48C160466047
:1044000000210161816001F0A9FF20B9064802F096
:104410004FF808B070BD0120FBE7000040380240B3
:1044200040420F0000140040B412002008B500BF45
:10443000002000901148006840F480400F49086057
:104440000846006800F48040009000BF00BF00BF35
:1044500000200090081F006840F08050091F08608D
:104460000846006800F08050009000BF00BF0022A6
:104470000F21901E00F014F808BD000044380240DF
:1044800001460846002809DB00F01F0301229A407C
:1044900043099B0003F1E023C3F8002100BF7047EC
:1044A0002DE9F05F80460D46164600270CF04AFEC7
:1044B000074639462A46334601F00700C0F1070A8D
:1044C000BAF1040F02D94FF0040A01E0C0F1070A63
:1044D000D14600F1040ABAF1070F02D24FF0000AE8
:1044E00001E0A0F1030AD4464FF0010A0AFA09FAE2
:1044F000AAF1010A0AEA020A0AFA0CFA4FF0010BC1
:104500000BFA0CFBABF1010B0BEA030B4AEA0B04B1
:10451000214640460CF01EFEBDE8F09F00BF00F0B3
:104520000702064B19684FF6FF031940044B0B4373
:1045300043EA0221014B196000BF70470CED00E017
:104540000000FA0500BF00BF00BF00BF00BFBFF3FF
:104550004F8F00BF00BF00BF0948006800F4E06053
:1045600008490843001D0649086000BF00BF00BF9E
:10457000BFF34F8F00BF00BF00BF00BF00BFFDE70C
:104580000CED00E00000FA05704702461068416239
:1045900000207047F0B5034615461868446A21B9F3
:1045A00044EA05401E68B06219E01868806A04EBAE
:1045B0001044002208E0186800F5827050F82200CC
:1045C00004EB1044501CC2B2481E9042F3D844EA97
:1045D0000547186800F582704E1E40F826700020CE
:1045E000F0BD10B50446D4F8080508F068FB10BD0E
:1045F00070B504460D4605EBC50304F13C0101EB23
:1046000083010A692946D4F8080508F053FA70BDF9
:1046100070B504460D4605EBC50304F51F7101EBAB
:1046200083010A692946D4F8080508F0C7FA70BD65
:1046300010B50446D4F8080508F044FB10BD2DE978
:10464000F04104460D4605F08000802808D105F0B1
:104650000F0000EBC00104F13C0000EB810607E015
:1046600005F00F0000EBC00104F51F7000EB8106A0
:104670003146206809F018FE07463846BDE8F0814B
:1046800070B504460E4606F0800080280AD106F078
:104690000F0000EBC00104F13C0000EB810501209C
:1046A000687009E006F00F0000EBC00104F51F7010
:1046B00000EB81050020687006F00F00287000BF35
:1046C00094F8BC04012801D1022070BD012084F8B7
:1046D000BC0400BF2946206809F0C6F800BF0020CE
:1046E00084F8BC0400BF00BFEFE770B504460E4677
:1046F00006F00F006168884201D9012070BD06F004
:10470000800080280AD106F00F0000EBC00104F100
:104710003C0000EB81050120687009E006F00F0005
:1047200000EBC00104F51F7000EB810500206870EC
:104730000020A87006F00F00287000BF94F8BC0499
:10474000012801D10220D9E7012084F8BC0400BF70
:104750002946206809F070FB00BF002084F8BC04E3
:1047600000BF00BFCAE7024601F00F0000EBC00324
:1047700002F51F7000EB8300006A70472DE9F047D7
:1047800005460E4690461F464FF0000906F0800091
:1047900080280AD106F00F0000EBC00105F13C00B3
:1047A00000EB81040120607009E006F00F0000EBCF
:1047B000C00105F51F7000EB81040020607006F059
:1047C0000F002070C4F80C802771607808B1207841
:1047D0002081022F01D10020607100BF95F8BC0438
:1047E000012802D10220BDE8F087012085F8BC0431
:1047F00000BF2146286808F04DFF00BF002085F863
:10480000BC0400BF4846EEE72DE9F04104460E46E1
:104810001746984606F00F0000EBC00104F51F7024
:1048200000EB81052F61C5F81880002028626870B0
:1048300006F00F0028702069012800D16F6106F092
:104840000F0028B9227C2946206809F0CFF904E03E
:10485000227C2946206809F083FB0020BDE8F08116
:1048600070B504460D4605F00F006168884201D915
:10487000012070BD05F0800080280AD105F00F00EE
:1048800000EBC00104F13C0000EB810601207070D8
:1048900007E005EBC50104F51F7000EB8106002061
:1048A00070700120B07005F00F00307000BF94F8F8
:1048B000BC04012801D10220DBE7012084F8BC04FC
:1048C00000BF3146206809F0FEFA05F00F0028B954
:1048D000217C04F2C442206809F076FA00BF00206F
:1048E00084F8BC0400BF00BFC3E72DE9F0410446D3
:1048F0000E461746984606F00F0000EBC00104F183
:104900003C0000EB81052F61C5F81880002028626B
:104910000120687006F00F0028702069012800D17E
:104920006F6106F00F0028B9227C2946206809F043
:104930005DF904E0227C2946206809F011FB002083
:10494000BDE8F0812DE9FE4F0446D4F800B05E4684
:10495000206809F090FD002874D1206809F0CAFD94
:1049600008B9BDE8FE8F40F608008059C0F30D205D
:10497000C4F8FC04206809F0BDFD00F00200022824
:1049800005D12068406900F0020021684861206874
:1049900009F0B0FD00F01000102845D120688069B2
:1049A00020F0100021688861DBF8209009F00F00EA
:1049B00000EBC00104F51F7000EB810AC9F343400E
:1049C00002281AD147F6F07009EA000030B3C9F3A3
:1049D0000A125846DAF8101009F091FDC9F30A11CD
:1049E000DAF810000844CAF81000C9F30A11DAF81E
:1049F00020000844CAF8200010E0C9F3434006280C
:104A00000CD1082204F2C441584609F078FDC9F3DC
:104A10000A11DAF820000844CAF8200020688069EA
:104A200040F0100021688861206809F063FD00F4FF
:104A30000020B0F5002F7BD10025206809F02AFD69
:104A4000029072E0E1E2029800F00100002868D0D4
:104A5000E9B2206809F041FD804608F0010048B144
:104A6000012106F5306000EB4510816029462046A3
:104A700006F00AF808F00800082809D1082106F510
:104A8000306000EB451081602946204605F0CAFFE2
:104A900008F01000102805D1102106F5306000EB59
:104AA0004510816008F00200022824D1DBF81400D0
:104AB00000F08000802807D140F60400805940F4BF
:104AC000806140F60400815105EBC50104F51F70BB
:104AD00000EB810A9AF80300012806D100208AF829
:104AE0000300E9B2204600F09BFA022106F530608F
:104AF00000EB4510816008F02000202805D120211E
:104B000006F5306000EB4510816008F40050B0F508
:104B1000005F06D14FF4005106F5306000EB451000
:104B200081606D1C029840080290029800288AD18A
:104B3000206809F0DFFC00F48020B0F5802F7DD1E3
:104B4000206809F09DFC029000259AE0029800F090
:104B50000100002873D0E9B2206809F0A5FC804666
:104B600008F00100F0B305F00F010120884001902A
:104B700040F634008159019821EA000040F63401E2
:104B80008851012106F5106000EB45108160206915
:104B9000012824D105EBC50104F13C0000EB8100A4
:104BA00005EBC502016904F13C0000EB8200C0681E
:104BB000014405EBC50204F13C0000EB82000161F9
:104BC0006DB905EBC50104F13C0000EB8100806983
:104BD00028B904F2C4420121206809F0F5F8E9B2CD
:104BE000204600E001E0FFF703FD08F00800082878
:104BF00005D1082106F5106000EB4510816008F032
:104C00001000102805D1102106F5106000EB4510AA
:104C1000816008F04000402805D1402106F5106071
:104C200000EB4510816008F0020002281DD12946E2
:104C3000584609F0E1FB05EBC50101E025E01CE069
:104C400004F13C0000EB810A9AF80300012806D128
:104C500000208AF80300E9B2204600F0D8F90221CA
:104C600006F5106000EB4510816008F08000802898
:104C700003D12946204605F0A9FF6D1C0298400883
:104C80000290029800287FF461AF206809F032FC9E
:104C900000F00040B0F1004F1CD140F604008059F4
:104CA00020F0010140F60400815194F8F404012839
:104CB00007D1002084F8F40400212046FFF764FCAB
:104CC00002E0204600F0D4FA2068406900F000407D
:104CD00021684861206809F00DFC00F40060B0F51F
:104CE000006F0ED140F60800805900F0010010B1AD
:104CF000204600F015FB2068406900F40060216840
:104D00004861206809F0F6FB00F48050B0F5805F40
:104D10007ED140F60400805920F0010140F60400E5
:104D200081511021206809F067FB002732E04FF61F
:104D30007F3106F5106000EB4710816006F51060CA
:104D400000EB4710006820F4001106F5106000EB3E
:104D5000471001604FF67F3106F5306000EB4710D9
:104D6000816006F5306000EB4710006820F4001108
:104D700006F5306000EB4710016006F5306000EB8F
:104D80004710006840F0006106F5306000EB471006
:104D900001607F1C6068B842C9D840F61C00805989
:104DA00040F0011140F61C008151206B70B1D6F823
:104DB000840840F00B01C6F8841840F6440080597E
:104DC00040F00B0140F6440081510FE040F6140022
:104DD000805942F22B01084340F614018851081F04
:104DE000805940F00B014FF401608151D6F8000862
:104DF00020F4FE60C6F80008217C04F2C44220685A
:104E000008F0E2FF2068406900F48050216800E06B
:104E100000E04861206809F06DFB00F40050B0F537
:104E2000005F17D1206808F09DFC206809F010FB96
:104E3000E06000F043FC0090227B2068009909F0BC
:104E4000E1FB204600F0FCF92068406900F40050C6
:104E500021684861206809F04DFB00F0080008282F
:104E600008D1204600F00BFA2068406900F00800E5
:104E700021684861206809F03DFB00F0800080282F
:104E800018D1DBF8180020F08000CBF818000125BD
:104E90000DE005EBC50104F51F7000EB8100C07843
:104EA000012803D1E9B22046FFF7C9FB6D1C6068F9
:104EB000A842EED8206809F01DFB00F48010B0F580
:104EC000801F2DD1012522E006F5106000EB451072
:104ED000D0F8009005EBC50104F13C0000EB810027
:104EE0000079012812D109F00040B0F1004F0DD136
:104EF000012105EBC50204F13C0000EB8200C1700A
:104F0000E8B240F080012046FFF799FB6D1C606815
:104F1000A842D9D82068406900F48010216848610F
:104F2000206809F0E7FA00F40010B0F5001F44D142
:104F3000012538E006F5306000EB4510D0F8009010
:104F400005EBC50104F51F7000EB81000079012815
:104F500028D109F00040B0F1004F23D109F480308E
:104F600094F8FC1401F0010188421BD1012105EBEA
:104F7000C50204F51F7000EB8200C170DBF8180059
:104F800040F08000CBF81800DBF8140000F080003F
:104F900040B940F60400805940F4007140F6040026
:104FA000815103E06D1C6068A842C3D800BF20682F
:104FB000406900F4001021684861206809F09AFAFD
:104FC00000F08040B0F1804F08D12046FFF709FB88
:104FD0002068406900F0804021684861206809F03D
:104FE00089FA00F0040004280FD12068D0F804905A
:104FF00009F00400042802D12046FFF719FB2068BD
:10500000406840EA09002168486000BFA9E470B523
:1050100004460D462946D4F8080507F0BFFE70BDCA
:1050200070B504460D462946D4F8080507F0DAFEA7
:1050300070BD70B58AB0044614B901200AB070BDC5
:10504000266894F8BD0428B9002084F8BC042046E2
:1050500000F0A2F8032084F8BD04F06B00F4807027
:1050600008B900212161206808F0B8FD282204F168
:1050700010016846FBF743FF94E80F0008F086FB39
:1050800020B1022084F8BD040120D7E70021206868
:1050900009F065FA002531E0012105EBC50204F1B4
:1050A0003C0000EB8200417005EBC50104F13C00BF
:1050B00000F8215005EBC50100EB810005810021BE
:1050C00005EBC50204F13C0000EB8200017105EB29
:1050D000C50204F13C0000EB8200C16005EBC50293
:1050E00004F13C0000EB8200016105EBC50204F114
:1050F0003C0000EB82008161681CC5B26068A84278
:10510000CAD800252AE0002105EBC50204F51F706E
:1051100000EB8200417005EBC50104F51F7000F83B
:105120002150002105EBC50200EB8200017105EB67
:10513000C50204F51F7000EB8200C16005EBC502DB
:1051400004F51F7000EB8200016105EBC50204F558
:105150001F7000EB82008161681CC5B26068A842C4
:10516000D1D8282204F110016846FBF7C8FE94E864
:105170000F0008F043FC20B1022084F8BD04012098
:105180005CE7002084F83800012084F8BD04206822
:1051900008F022FC002051E710B586B00446142127
:1051A00001A8FBF700FF2068B0F1A04F42D100BF7B
:1051B000002000902048006840F001001E4908606F
:1051C0000846006800F00100009000BF00BF4FF4E7
:1051D000C050019002200290002003900320049010
:1051E0000A20059001A91548FEF726FE00BF1248C7
:1051F000001D006840F080000F49091D086000BFD5
:10520000002000900C481430006840F480400A49A7
:10521000143108600846006800F48040009000BF28
:1052200000BF00BF002205214320FFF739F94320CA
:10523000FFF726F906B010BD3038024000000240EA
:1052400070B504460125E06808B9002506E0E0686D
:10525000022801D1012501E0FDF7D6F82946D4F84E
:10526000080507F068FED4F8080507F00FFE70BDCA
:1052700010B50446D4F8080507F03EFE10BD10B581
:105280000446D4F8080507F042FE10BD70B5044688
:105290000D4600BF94F8BC04012801D1022070BD66
:1052A000012084F8BC0400BF84F8385029462068E7
:1052B00009F089F900BF002084F8BC0400BF00BFDA
:1052C000EDE710B5044604F2C441D4F8080507F030
:1052D00049FE10BD70B50446256800BF94F8BC04B3
:1052E000012801D1022070BD012084F8BC0400BF58
:1052F000A06A012806D1A069012803D0A86B40F458
:105300008030A863206809F045F8206808F052FB57
:1053100000BF002084F8BC0400BF00BFE3E700002A
:1053200010B50446D4F8080507F079FE2068D0F8D7
:10533000000E40F001002168C1F8000E206A28B17B
:105340000348006840F006000149086010BD0000F5
:1053500010ED00E0F8B5044600250026207800F0A6
:10536000010020B9207800F0040004282FD100208B
:105370005B498866FEF760FE054606E0FEF75CFEC8
:10538000401B022801D90320F8BD56480068C0F32D
:10539000C0600028F2D160688101207A41EA007083
:1053A00050498431086001204D498866FEF744FE6B
:1053B000054606E0FEF740FE401B022801D9032007
:1053C000E2E748480068C0F3C0600028F2D02078C7
:1053D00000F0020002287DD100BF0020009041486B
:1053E0004030006840F080503E4940310860084637
:1053F000006800F08050009000BF00BF3A4800688D
:1054000040F4807038490860FEF716FE054606E055
:10541000FEF712FE401B022801D90320B4E73248F0
:10542000006800F480700028F2D02E4870300068C8
:1054300000F440764EB3A08900F44070B04224D00E
:1054400028487030006820F4407601202749086021
:1054500000200860234870300660006800F00100FA
:1054600098B1FEF7E9FD054608E0FEF7E5FD401BB3
:1054700041F28831884201D9032085E7194870300C
:105480000068C0F340000028EFD000BFA08900F4FE
:105490004070B0F5407F0CD112480830006820F40D
:1054A000F810134AE168114008430E4908310860BA
:1054B00007E00C480830006820F4F810094908316A
:1054C0000860084870300068A189C1F30B010843E7
:1054D000044900E002E07031086000BF002053E79B
:1054E000000047420038024000700040400E474232
:1054F000FFFCFF0F70B504460D460CB9012070BDCE
:105500005848006800F00700A84209D255490D70BC
:105510000846006800F00700A84201D00120EEE72D
:10552000207800F0020002281DD1207800F004004D
:10553000042805D14C48006840F4E0504A4908600E
:10554000207800F00800082805D14748006840F49A
:105550006040454908604448006820F0F000A168B8
:10556000084341490860207800F00100A8B3606852
:10557000012807D13C4808380068C0F34040B8B95A
:105580000120BCE76068022802D06068032807D1C8
:10559000354808380068C0F3406048B90120AEE7DC
:1055A000314808380068C0F3400008B90120A6E778
:1055B0002D48006820F00300616808432A4908600C
:1055C000FEF73AFD064609E0FEF736FD801B41F284
:1055D0008831884202D9032091E707E02248006819
:1055E00000F00C006168B0EB810FEDD11D48006840
:1055F00000F00700A84209D91A490D700846006852
:1056000000F00700A84201D0012078E7207800F0E0
:105610000400042807D11448006820F4E050E16831
:10562000084311490860207800F00800082808D1D4
:105630000D48006820F46040216940EAC1000A4931
:10564000086000F061F808490968C1F30311074ACE
:10565000515CC8400649086006480068FEF7A0FE95
:1056600000204CE7003C024008380240B04A0108E4
:1056700088000020800000200F2202600D4A12687E
:1056800002F0030242600B4A126802F0F0028260EC
:10569000084A126802F4E052C260064A126802F434
:1056A0006042D2080261044A126802F007020A60EE
:1056B0007047000008380240003C02400148006882
:1056C000704700008800002000B5FFF7F7FF04498D
:1056D0000968C1F38221034A515CC84000BD000043
:1056E00008380240C04A010800B5FFF7E7FF044947
:1056F0000968C1F34231034A515CC84000BD000053
:1057000008380240C04A01082DE9F047002400256E
:105710000026A1462548006800F00C0020B10428AE
:1057200005D008283AD105E0DFF8849039E0DFF8A9
:10573000849036E01D48001F006800F03F041B48BD
:10574000001F006800F4800078B11A481749091F4B
:105750000968C1F38811A0FB0170014622460023AD
:105760003846FBF755FB05460EE011480F49091F67
:105770000968C1F38811A0FB01700146224600238D
:105780003846FBF745FB05460848001F0068C0F394
:105790000140401C4600B5FBF6F902E0DFF810902E
:1057A00000BF00BF4846BDE8F0870000083802404F
:1057B0000024F400001BB700F8B504460CB9012022
:1057C000F8BD207800F00100002874D0F948006886
:1057D00000F00C0004280DD0F648006800F00C0022
:1057E000082813D1F348001F006800F48000B0F5CA
:1057F000800F0BD1EF4808380068C0F34040002804
:1058000059D06068002856D10120D9E700BF6068F0
:10581000B0F5803F08D1E7480838006840F4803090
:10582000E449083908601EE06068B0F5A02F0DD18A
:10583000E0480838006840F48020DE4908390860F4
:105840000846006840F4803008600CE0D948083809
:10585000006820F48030D74908390860084600689D
:1058600020F48020086000BF606890B1FEF7E4FB80
:10587000054606E0FEF7E0FB401B642801D9032043
:105880009EE7CC4808380068C0F340400028F1D0BB
:1058900011E0FEF7D1FB054606E0FEF7CDFB401B0D
:1058A000642801D903208BE7C24808380068C0F398
:1058B00040400028F1D1207800F0020002285FD19A
:1058C000BC48006800F00C0058B1BA48006800F00D
:1058D0000C0008281CD1B748001F006800F48000A5
:1058E000B0B9B44808380068C0F3400020B1E0689F
:1058F000012801D0012063E7AE480838006820F095
:10590000F800216940EAC100AA490839086037E077
:10591000E06800B30120A8490860FEF78DFB05464A
:1059200006E0FEF789FB401B022801D9032047E768
:10593000A04808380068C0F340000028F1D09D4816
:105940000838006820F0F800216940EAC100994950
:105950000839086014E0002097490860FEF76CFBE6
:10596000054606E0FEF768FB401B022801D903202C
:1059700026E7904808380068C0F340000028F1D1BD
:10598000207800F0080008282CD16069A8B1012017
:105990008A490860FEF750FB054606E0FEF74CFB1F
:1059A000401B022801D903200AE782486C300068B6
:1059B000C0F340000028F1D014E000207F490860C7
:1059C000FEF73AFB054606E0FEF736FB401B0228D1
:1059D00001D90320F4E677486C300068C0F340003A
:1059E0000028F1D1207800F00400042870D10027AD
:1059F00070483830006800F0805090B900BF002037
:105A000000906C483830006840F080506949383167
:105A100008600846006800F08050009000BF00BF9A
:105A200001276748006800F48070B0B964480068D6
:105A300040F4807062490860FEF7FEFA054606E011
:105A4000FEF7FAFA401B022801D90320B8E65C48A9
:105A5000006800F480700028F2D000BFA068012820
:105A600008D154486830006840F00100514968315D
:105A700008601DE0A06805280DD14E486830006818
:105A800040F004004B49683108600846006840F067
:105A9000010008600CE047486830006820F0010011
:105AA0004449683108600846006820F00400086036
:105AB00000BFA068A8B1FEF7BFFA054609E0FEF7EF
:105AC000BBFA401B41F28831884202D9032077E6B5
:105AD00026E0384868300068C0F340000028EED067
